:100000000C9462000C948A000C948A000C948A0070
:100010000C948A000C948A000C948A000C948A0038
:100020000C948A000C948A000C948A000C948A0028
:100030000C948A000C948A000C948A000C948A0018
:100040000C941E040C948A000C948E040C94680486
:100050000C948A000C948A000C948A000C948A00F8
:100060000C948A000C948A000000000024002700F1
:100070002A0000000000250028002B0000000008D6
:10008000000201000003040700000000000000005F
:1000900000000000230026002900040404040404D6
:1000A0000404020202020202030303030303010227
:1000B00004081020408001020408102001020408F6
:1000C0001020C00411241FBECFEFD8E0DEBFCDBF8B
:1000D00011E0A0E0B1E0EEE5F2E102C005900D9282
:1000E000A635B107D9F722E0A6E5B1E001C01D921F
:1000F000A331B207E1F710E0C2E6D0E004C02197D7
:10010000FE010E942709C136D107C9F70E940D05DB
:100110000C942D090C940000CF92DF92EF92FF9285
:10012000CF93DF93B0910702A0E08111AB2F8091B4
:10013000080290E0880F991FAC0140575F4FC090B4
:100140000D02D0900E02E0900F02F090100230E00D
:1001500020E0FA01C591D491E881B90190E080E0F6
:10016000EB23EA130AC02F5F3F4F6C157D058E0508
:100170009F0578F36FEF7FEFCB01DF91CF91FF9079
:10018000EF90DF90CF900895833081F028F4813094
:1001900099F08230A9F008958730A9F08830C9F02D
:1001A0008430B1F4809180008F7D03C08091800005
:1001B0008F7780938000089584B58F7784BD0895EC
:1001C00084B58F7DFBCF8091B0008F778093B00096
:1001D00008958091B0008F7DF9CF1F93CF93DF9367
:1001E000282F30E0F901E458FF4F8491F901E255DE
:1001F000FF4FD491F901E656FF4FC491CC23A9F0EB
:10020000162F81110E94C400EC2FF0E0EE0FFF1FAB
:10021000EE58FF4FA591B4918FB7F894EC9111115E
:1002200008C0D095DE23DC938FBFDF91CF911F9163
:100230000895DE2BF8CFCF93DF9390E0FC01E255D9
:10024000FF4F249186569F4FFC0184918823D1F063
:1002500090E0880F991FFC01E859FF4FA591B491D8
:10026000FC01EE58FF4FC591D491623071F49FB7F5
:10027000F8943C91822F809583238C93E8812E2BD8
:1002800028839FBFDF91CF9108958FB7F894EC91A9
:100290002E2B2C938FBFF6CF3FB7F89480915B0144
:1002A00090915C01A0915D01B0915E0126B5A89B83
:1002B00005C02F3F19F00196A11DB11D3FBFBA2FF8
:1002C000A92F982F8827BC01CD01620F711D811DB8
:1002D000911D42E0660F771F881F991F4A95D1F73D
:1002E00008958F929F92AF92BF92CF92DF92EF923A
:1002F000FF924B015C010E944C016B017C010E944A
:100300004C016C197D098E099F09683E7340810577
:100310009105A8F321E0821A9108A108B10888EE9E
:10032000C80E83E0D81EE11CF11C81149104A104C5
:10033000B10429F7FF90EF90DF90CF90BF90AF907E
:100340009F908F900895CF92DF92EF92FF920F933C
:100350001F93CF93DF93CDB7DEB7C054D1400FB614
:10036000F894DEBF0FBECDBF2FB7F89480915F0128
:1003700090916001A0916101B09162012FBF409105
:10038000090250910A0260910B0270910C028C01DB
:100390009D01041B150B260B370BB901A801403D2D
:1003A00057406105710590F480911102C05CDE4FE9
:1003B0000FB6F894DEBF0FBECDBFDF91CF911F9176
:1003C0000F91FF90EF90DF90CF90089580930902F6
:1003D00090930A02A0930B02B0930C0210920402B5
:1003E0001092030210920202109201021092000277
:1003F00062E0809105020E941B0161E070E080E0F4
:1004000090E00E94710161E0809105020E941B0151
:1004100060E0809105020E94ED0080910602855106
:10042000823020F58BE291E10197F1F762E0809153
:1004300005020E941B018091120290E0823091051A
:1004400038F0880F991F880F991F05970197F1F7CA
:10045000F89480E00E948C006F3F7F4F8F4F9F4F3A
:1004600061F410921102789480E0A0CF64E170E012
:1004700080E090E00E947101D9CF81E00E948C0061
:100480006F3F7F4F8F4F9F4F61F38E010F5F1F4F65
:100490006E018FEBC81A8EEFD80A780180E00E94B7
:1004A0008C00F701608371838283938381E00E94D3
:1004B0008C00F7016483758386839783F8E0EF0EE1
:1004C000F11CEC14FD0451F7789430E020E0F801C1
:1004D000C080D180E280F38044815581668177813C
:1004E000FFEFCF16DF06EF06FF0631F04F3F8FEF2D
:1004F00058076807780719F410921102B5CFF9016F
:1005000083E0F595E7958A95E1F7E050FE4F80810D
:10051000880FC416D506E606F70610F180832F5F14
:100520003F4F085F1F4F2832310589F64091040282
:100530002091000280910102280F3327331F809100
:100540000202280F311D80910302820F932F911D0B
:1005500099274817190681F681E08093110226CF6A
:100560008160DCCFAF92BF92CF92DF92EF92FF9289
:100570000F931F93CF93DF936C017B018B01040FCB
:10058000151FEB015E01AE18BF08C017D10759F067
:100590006991D601ED91FC910190F081E02DC601A9
:1005A0000995892B79F7C501DF91CF911F910F91A3
:1005B000FF90EF90DF90CF90BF90AF900895FC0137
:1005C000538D448D252F30E0842F90E0821B930BB8
:1005D000541710F0CF96089501970895FC01918D5E
:1005E000828D981761F0A28DAE0FBF2FB11D5D9661
:1005F0008C91928D9F5F9F73928F90E008958FEF03
:100600009FEF0895FC01918D828D981731F0828DB6
:10061000E80FF11D858D90E008958FEF9FEF08950D
:10062000FC01918D228D892F90E0805C9F4F821B71
:1006300091098F739927089583E691E00E94100332
:1006400021E0892B09F420E0822F089580E090E0DA
:10065000892B29F00E941C0381110C94000008953D
:10066000FC01A48DA80FB92FB11DA35ABF4F2C9127
:10067000848D90E001968F739927848FA689B7891E
:100680002C93A089B1898C91837080648C93938D15
:10069000848D981306C00288F389E02D80818F7DB8
:1006A00080830895EF92FF920F931F93CF93DF9370
:1006B000EC0181E0888F9B8D8C8D98131AC0E8899E
:1006C000F989808185FF15C09FB7F894EE89FF896D
:1006D0006083E889F98980818370806480839FBF0B
:1006E00081E090E0DF91CF911F910F91FF90EF900B
:1006F0000895F62E0B8D10E00F5F1F4F0F7311271B
:10070000E02E8C8D8E110CC00FB607FCFACFE88955
:10071000F989808185FFF5CFCE010E943003F1CFAA
:10072000EB8DEC0FFD2FF11DE35AFF4FF0829FB7C9
:10073000F8940B8FEA89FB8980818062CFCFCF93B9
:10074000DF93EC01888D8823B9F0AA89BB89E889F9
:10075000F9898C9185FD03C0808186FD0DC00FB69F
:1007600007FCF7CF8C9185FFF2CF808185FFEDCF1D
:10077000CE010E943003E9CFDF91CF910895FC01B3
:1007800001900020E9F73197AF01481B590BBC01DC
:1007900083E691E00C94B2028F929F92AF92BF9247
:1007A0000F931F93CF93DF93CDB7DEB7A1970FB60B
:1007B000F894DEBF0FBECDBF19A2423008F44AE064
:1007C0008E010F5D1F4F842E912CB12CA12CA50101
:1007D00094010E940509E62FB901CA01EA30F4F438
:1007E000E05DD801EE938D01232B242B252B79F787
:1007F00090E080E0109719F0CD010E94BF03A19610
:100800000FB6F894DEBF0FBECDBFDF91CF911F9121
:100810000F91BF90AF909F908F900895E95CE1CFCA
:10082000CF93DF930E94BF03EC0184E191E00E942B
:10083000BF038C0F9D1FDF91CF9108951F920F92E0
:100840000FB60F9211242F933F938F939F93AF93E3
:10085000BF9380915F0190916001A0916101B0917F
:10086000620130915A0123E0230F2D3758F501968C
:10087000A11DB11D20935A0180935F0190936001E7
:10088000A0936101B093620180915B0190915C0142
:10089000A0915D01B0915E010196A11DB11D8093F3
:1008A0005B0190935C01A0935D01B0935E01BF91E9
:1008B000AF919F918F913F912F910F900FBE0F900D
:1008C0001F90189526E8230F0296A11DB11DD2CFC7
:1008D0001F920F920FB60F9211242F933F934F93B5
:1008E0005F936F937F938F939F93AF93BF93EF9398
:1008F000FF9383E691E00E943003FF91EF91BF9157
:10090000AF919F918F917F916F915F914F913F91A7
:100910002F910F900FBE0F901F9018951F920F925E
:100920000FB60F9211242F938F939F93EF93FF9302
:10093000E0917301F09174018081E0917901F0916F
:100940007A0182FD1BC0908180917C018F5F8F7343
:1009500020917D01821741F0E0917C01F0E0ED599A
:10096000FE4F958F80937C01FF91EF919F918F9126
:100970002F910F900FBE0F901F9018958081F4CF8C
:10098000E3E6F1E01382128288EE93E0A0E0B0E0AB
:1009900084839583A683B78386E091E091838083E7
:1009A00085EC90E09587848784EC90E09787868734
:1009B00080EC90E0918B808B81EC90E0938B828B2C
:1009C00082EC90E0958B848B86EC90E0978B868B05
:1009D000118E128E138E148EA0E0B2E082E0159676
:1009E0008C9315978BE016968C931697E0EBF0E0BE
:1009F000E4911796EC931797ECE9F0E0E4911896E0
:100A0000EC93189740E85EE360E070E01D964D932C
:100A10005D936D937C9350970895789484B582602C
:100A200084BD84B5816084BD85B5826085BD85B592
:100A3000816085BD80916E00816080936E00109210
:100A4000810080918100826080938100809181008B
:100A5000816080938100809180008160809380001C
:100A60008091B10084608093B1008091B00081607A
:100A70008093B00080917A00846080937A008091A6
:100A80007A00826080937A0080917A0081608093FE
:100A90007A0080917A00806880937A001092C10079
:100AA00061E084E00E941B0162E083E00E941B0180
:100AB0006091560184E00E94ED00E0917301F09195
:100AC000740182E08083E0916F01F09170011082E7
:100AD000E0917101F09172018FEC808310927B01A3
:100AE000E0917701F091780186E08083E0917501D3
:100AF000F0917601808180618083E0917501F091B1
:100B00007601808188608083E0917501F0917601A3
:100B1000808180688083E0917501F0917601808109
:100B20008F7D808362E0809105020E941B012FB7B8
:100B3000F89480915F0190916001A0916101B09162
:100B400062012FBF805D9740A109B109809309021E
:100B500090930A02A0930B02B0930C0287E3809358
:100B600012023FE7232E30E0332E41EB842E40E08B
:100B7000942ECDE9D0E000E010E0AA24A394B12C9B
:100B8000F1018491F401F490FE01E490E11024C09D
:100B90001092590110925801809100019091010129
:100BA000019761F5809156019091570121E030E065
:100BB000009711F030E020E0309357012093560168
:100BC000892BC1F587E191E00E94100460915601E4
:100BD00084E00E94ED0012C081110E94C400EE2D3D
:100BE000F0E0EE0FFF1FE057FF4FA591B4918C91FD
:100BF000F82271F2B0925901A092580180915801E7
:100C00009091590190930101809300010E94A301EA
:100C1000882309F482C0809106028C3009F48FC0C9
:100C200060F48B3019F1C12CD12C80ECE82E8FE7C9
:100C3000F82E46C089E291E0C7CF8551823098F7FF
:100C400070900202672D70E0762F662766277F7707
:100C500080910302682B90E080E00E94DC072DEC7D
:100C60003CEC4CEC5DE30E94930885C0609102026D
:100C700070E090E080E00E94DC076B017C017090E6
:100C8000030277FE0AC0AC019B0160E070E080E8DF
:100C90009FEB0E943B076B017C01672D6F7070E03A
:100CA00090E080E00E94DE072DEC3CEC4CEC5DE334
:100CB0000E949308A70196010E943C076B017C01EA
:100CC000A7019601C701B6010E940009811125C044
:100CD0008CE391E00E94BF0326013701E89477F886
:100CE0002FEF3FEF4FE75FE7C301B2010E9400091A
:100CF00081114AC02FEF3FEF4FE75FE7C301B20119
:100D00000E94A80718160CF03FC08AE491E00E94E8
:100D1000BF0382E591E00E94100464EF71E080E07F
:100D200090E00E9471010115110509F429CF0E947C
:100D30001C03882309F424CF0E94000021CF709067
:100D40000202672D70E090E080E00E94DC076B01FA
:100D50007C01609103026F7070E090E080E00E947F
:100D6000DE072DEC3CEC4CEC5DE30E949308A70100
:100D700096010E943C076B017C0177FEA1CFF7FA38
:100D8000F094F7F8F0949CCF2FEF3FEF4FE75FE43C
:100D9000C701B6010E948E0818161CF48EE491E07B
:100DA000B6CF2FEF3FEF4FE75FECC701B6010E94D0
:100DB000A80787FDF3CF20E030E0A901C701B60105
:100DC0000E94A80787FF09C06DE283E691E00E94B8
:100DD0005203F7FAF094F7F8F0942AE037ED43EA7B
:100DE0005BE3C701B6010E943C072B013C010E9456
:100DF000AD076B017C010E94DC079B01AC01C301C4
:100E0000B2010E943B072B013C014AE0C701B60139
:100E10000E94CC036EE283E691E00E94520320E040
:100E200030E040E251E4C301B2010E9493082B017B
:100E30003C010E94AD076B01F12CE12C4AE0C70197
:100E4000B6010E94CC03C701B6010E94DC079B01DA
:100E5000AC01C301B2010E943B0720E030E040E258
:100E600051E40E9493080E94AD0790E080E04AE0C0
:100E70000E94CC034ECF5058BB27AA270E9453078D
:100E80000C9454080E94460838F00E944D0820F047
:100E900039F49F3F19F426F40C9443080EF4E095BE
:100EA000E7FB0C943D08E92F0E94650858F3BA1738
:100EB000620773078407950720F079F4A6F50C9470
:100EC00087080EF4E0950B2EBA2FA02D0B01B90167
:100ED00090010C01CA01A0011124FF27591B99F0B0
:100EE000593F50F4503E68F11A16F040A22F232FBC
:100EF000342F4427585FF3CF469537952795A7950C
:100F0000F0405395C9F77EF41F16BA0B620B730BB2
:100F1000840BBAF09150A1F0FF0FBB1F661F771F23
:100F2000881FC2F70EC0BA0F621F731F841F48F4D8
:100F3000879577956795B795F7959E3F08F0B0CF61
:100F40009395880F08F09927EE0F97958795089548
:100F50000E94190808F481E008950E946D0888F045
:100F60009F5798F0B92F9927B751B0F0E1F0660F6D
:100F7000771F881F991F1AF0BA95C9F714C0B130AE
:100F800091F00E948708B1E008950C948708672FBC
:100F9000782F8827B85F39F0B93FCCF386957795DD
:100FA0006795B395D9F73EF49095809570956195C6
:100FB0007F4F8F4F9F4F0895E89409C097FB3EF4F1
:100FC00090958095709561957F4F8F4F9F4F992396
:100FD000A9F0F92F96E9BB279395F6958795779514
:100FE0006795B795F111F8CFFAF4BB0F11F460FFD4
:100FF0001BC06F5F7F4F8F4F9F4F16C0882311F02C
:1010000096E911C0772321F09EE8872F762F05C03F
:10101000662371F096E8862F70E060E02AF09A95DA
:10102000660F771F881FDAF7880F9695879597F9CF
:101030000895990F0008550FAA0BE0E8FEEF161669
:101040001706E807F907C0F012161306E407F507BC
:1010500098F0621B730B840B950B39F40A2661F030
:10106000232B242B252B21F408950A2609F4A140D3
:10107000A6958FEF811D811D089597F99F6780E8E0
:1010800070E060E008959FEF80EC089500240A94DA
:101090001616170618060906089500240A94121653
:1010A0001306140605060895092E0394000C11F486
:1010B000882352F0BB0F40F4BF2B11F460FF04C033
:1010C0006F5F7F4F8F4F9F4F089557FD9058440F8C
:1010D000551F59F05F3F71F04795880F97FB991F97
:1010E00061F09F3F79F08795089512161306140654
:1010F000551FF2CF4695F1DF08C0161617061806E1
:10110000991FF1CF86957105610508940895E894BB
:10111000BB2766277727CB0197F908950E94190806
:1011200008F48FEF08950E94A6080C9454080E94BA
:10113000460838F00E944D0820F0952311F00C94D9
:101140003D080C94430811240C9488080E946508FB
:1011500070F3959FC1F3950F50E0551F629FF0010A
:10116000729FBB27F00DB11D639FAA27F00DB11D23
:10117000AA1F649F6627B00DA11D661F829F2227AC
:10118000B00DA11D621F739FB00DA11D621F839F33
:10119000A00D611D221F749F3327A00D611D231F09
:1011A000849F600D211D822F762F6A2F11249F5757
:1011B00050409AF0F1F088234AF0EE0FFF1FBB1F5A
:1011C000661F771F881F91505040A9F79E3F510519
:1011D00080F00C943D080C9488085F3FE4F3983E3F
:1011E000D4F3869577956795B795F795E7959F5FC3
:1011F000C1F7FE2B880F911D9695879597F9089555
:101200000E941908880B990B0895A1E21A2EAA1BB7
:10121000BB1BFD010DC0AA1FBB1FEE1FFF1FA217A6
:10122000B307E407F50720F0A21BB30BE40BF50BA3
:10123000661F771F881F991F1A9469F7609570952C
:10124000809590959B01AC01BD01CF010895EE0FF3
:0E125000FF1F0590F491E02D0994F894FFCF54
:10125E000100000000005203B202DF029F031003E0
:10126E00EE0202030D0A0048656174696E67207410
:10127E0075726E6564204F4E0048656174696E67C5
:10128E00207475726E6564204F46460054656D700D
:10129E00657261747572653A2000696E66006F76CC
:0612AE006600C2B043001F
:00000001FF
